{
  "_format": "hh-sol-artifact-1",
  "contractName": "Lottery",
  "sourceName": "contracts/test/Lottery.sol",
  "abi": [
    {
      "inputs": [
        {
          "internalType": "address",
          "name": "vrfCoordinatorV2",
          "type": "address"
        },
        {
          "internalType": "uint256",
          "name": "entranceFee",
          "type": "uint256"
        },
        {
          "internalType": "bytes32",
          "name": "gasLane",
          "type": "bytes32"
        },
        {
          "internalType": "uint64",
          "name": "subscriptionId",
          "type": "uint64"
        },
        {
          "internalType": "uint32",
          "name": "callbackGasLimit",
          "type": "uint32"
        },
        {
          "internalType": "uint256",
          "name": "interval",
          "type": "uint256"
        }
      ],
      "stateMutability": "nonpayable",
      "type": "constructor"
    },
    {
      "inputs": [],
      "name": "Lottery__NotEnoughETHToBuyATicket",
      "type": "error"
    },
    {
      "inputs": [
        {
          "internalType": "uint256",
          "name": "balance",
          "type": "uint256"
        },
        {
          "internalType": "uint256",
          "name": "numPlayers",
          "type": "uint256"
        },
        {
          "internalType": "uint256",
          "name": "state",
          "type": "uint256"
        }
      ],
      "name": "Lottery__PerformUpkeepNotNeeded",
      "type": "error"
    },
    {
      "inputs": [],
      "name": "Lottery__StateIsNotOpen",
      "type": "error"
    },
    {
      "inputs": [],
      "name": "Lottery__TransferFailed",
      "type": "error"
    },
    {
      "inputs": [
        {
          "internalType": "address",
          "name": "have",
          "type": "address"
        },
        {
          "internalType": "address",
          "name": "want",
          "type": "address"
        }
      ],
      "name": "OnlyCoordinatorCanFulfill",
      "type": "error"
    },
    {
      "anonymous": false,
      "inputs": [
        {
          "indexed": true,
          "internalType": "address",
          "name": "player",
          "type": "address"
        }
      ],
      "name": "LotteryEnter",
      "type": "event"
    },
    {
      "anonymous": false,
      "inputs": [
        {
          "indexed": true,
          "internalType": "uint256",
          "name": "requestId",
          "type": "uint256"
        }
      ],
      "name": "LotteryRequestedWinner",
      "type": "event"
    },
    {
      "anonymous": false,
      "inputs": [
        {
          "indexed": true,
          "internalType": "address",
          "name": "winner",
          "type": "address"
        }
      ],
      "name": "LotteryWinnerPicked",
      "type": "event"
    },
    {
      "anonymous": false,
      "inputs": [
        {
          "indexed": false,
          "internalType": "bool",
          "name": "isOpen",
          "type": "bool"
        },
        {
          "indexed": false,
          "internalType": "bool",
          "name": "timeHasPassed",
          "type": "bool"
        },
        {
          "indexed": false,
          "internalType": "bool",
          "name": "hasPlayers",
          "type": "bool"
        },
        {
          "indexed": false,
          "internalType": "bool",
          "name": "hasBalance",
          "type": "bool"
        }
      ],
      "name": "UpkeepNeeded",
      "type": "event"
    },
    {
      "inputs": [
        {
          "internalType": "bytes",
          "name": "",
          "type": "bytes"
        }
      ],
      "name": "checkUpkeep",
      "outputs": [
        {
          "internalType": "bool",
          "name": "upkeepNeeded",
          "type": "bool"
        },
        {
          "internalType": "bytes",
          "name": "",
          "type": "bytes"
        }
      ],
      "stateMutability": "nonpayable",
      "type": "function"
    },
    {
      "inputs": [],
      "name": "enterLottery",
      "outputs": [],
      "stateMutability": "payable",
      "type": "function"
    },
    {
      "inputs": [],
      "name": "getEntranceFee",
      "outputs": [
        {
          "internalType": "uint256",
          "name": "",
          "type": "uint256"
        }
      ],
      "stateMutability": "view",
      "type": "function"
    },
    {
      "inputs": [],
      "name": "getInterval",
      "outputs": [
        {
          "internalType": "uint256",
          "name": "",
          "type": "uint256"
        }
      ],
      "stateMutability": "view",
      "type": "function"
    },
    {
      "inputs": [],
      "name": "getLatestTimestamp",
      "outputs": [
        {
          "internalType": "uint256",
          "name": "",
          "type": "uint256"
        }
      ],
      "stateMutability": "view",
      "type": "function"
    },
    {
      "inputs": [],
      "name": "getLotteryState",
      "outputs": [
        {
          "internalType": "enum Lottery.LotteryState",
          "name": "",
          "type": "uint8"
        }
      ],
      "stateMutability": "view",
      "type": "function"
    },
    {
      "inputs": [],
      "name": "getNumWords",
      "outputs": [
        {
          "internalType": "uint256",
          "name": "",
          "type": "uint256"
        }
      ],
      "stateMutability": "pure",
      "type": "function"
    },
    {
      "inputs": [],
      "name": "getNumberOfPlayers",
      "outputs": [
        {
          "internalType": "uint256",
          "name": "",
          "type": "uint256"
        }
      ],
      "stateMutability": "view",
      "type": "function"
    },
    {
      "inputs": [
        {
          "internalType": "uint256",
          "name": "index",
          "type": "uint256"
        }
      ],
      "name": "getPlayers",
      "outputs": [
        {
          "internalType": "address",
          "name": "",
          "type": "address"
        }
      ],
      "stateMutability": "view",
      "type": "function"
    },
    {
      "inputs": [],
      "name": "getRecentWinner",
      "outputs": [
        {
          "internalType": "address",
          "name": "",
          "type": "address"
        }
      ],
      "stateMutability": "view",
      "type": "function"
    },
    {
      "inputs": [],
      "name": "getRequestConfirmations",
      "outputs": [
        {
          "internalType": "uint256",
          "name": "",
          "type": "uint256"
        }
      ],
      "stateMutability": "pure",
      "type": "function"
    },
    {
      "inputs": [
        {
          "internalType": "bytes",
          "name": "",
          "type": "bytes"
        }
      ],
      "name": "performUpkeep",
      "outputs": [],
      "stateMutability": "nonpayable",
      "type": "function"
    },
    {
      "inputs": [
        {
          "internalType": "uint256",
          "name": "requestId",
          "type": "uint256"
        },
        {
          "internalType": "uint256[]",
          "name": "randomWords",
          "type": "uint256[]"
        }
      ],
      "name": "rawFulfillRandomWords",
      "outputs": [],
      "stateMutability": "nonpayable",
      "type": "function"
    }
  ],
  "bytecode": "0x61016060405234801561001157600080fd5b50604051610dd1380380610dd1833981016040819052610030916100b2565b606086901b6001600160601b031916608081905260a086905260c090815260e08581529084901b6001600160c01b0319166101005282901b6001600160e01b0319166101205260006002805460ff60a01b1916600160a01b83600181111561009a5761009a61013d565b02179055504260015561014052506101539350505050565b60008060008060008060c087890312156100cb57600080fd5b86516001600160a01b03811681146100e257600080fd5b6020880151604089015160608a015192985090965094506001600160401b038116811461010e57600080fd5b608088015190935063ffffffff8116811461012857600080fd5b8092505060a087015190509295509295509295565b634e487b7160e01b600052602160045260246000fd5b60805160601c60a05160c05160601c60e0516101005160c01c6101205160e01c61014051610c046101cd6000396000818161022d015261054e01526000610401015260006103ca015260006103a40152600061043f01526000818160d601526105fe01526000818161028e01526102d00152610c046000f3fe6080604052600436106100c25760003560e01c80635f1b0fd81161007f57806391ad27b41161005957806391ad27b41461021e578063c1af578514610251578063f43b52cb14610259578063fd6673f51461026e57600080fd5b80635f1b0fd8146101b55780636b68c03c146101c95780636e04ff0d146101f057600080fd5b806309bc33a7146100c75780631fe543e3146101095780634585e33b1461012b578063460e20491461014b578063473f1ddc1461018357806353a2c19a146101a1575b600080fd5b3480156100d357600080fd5b507f00000000000000000000000000000000000000000000000000000000000000005b6040519081526020015b60405180910390f35b34801561011557600080fd5b506101296101243660046109d4565b610283565b005b34801561013757600080fd5b5061012961014636600461089b565b610310565b34801561015757600080fd5b5061016b6101663660046109a2565b6104ef565b6040516001600160a01b039091168152602001610100565b34801561018f57600080fd5b506002546001600160a01b031661016b565b3480156101ad57600080fd5b5060016100f6565b3480156101c157600080fd5b5060036100f6565b3480156101d557600080fd5b50600254600160a01b900460ff166040516101009190610aec565b3480156101fc57600080fd5b5061021061020b36600461090d565b61051e565b604051610100929190610a8d565b34801561022a57600080fd5b507f00000000000000000000000000000000000000000000000000000000000000006100f6565b6101296105fc565b34801561026557600080fd5b506001546100f6565b34801561027a57600080fd5b506000546100f6565b336001600160a01b037f000000000000000000000000000000000000000000000000000000000000000016146103025760405163073e64fd60e21b81523360048201526001600160a01b037f00000000000000000000000000000000000000000000000000000000000000001660248201526044015b60405180910390fd5b61030c82826106e7565b5050565b600061032a6040518060200160405280600081525061051e565b5090508061038057600054600254479190600160a01b900460ff16600181111561035657610356610b8c565b6040516312ce08eb60e11b81526004810193909352602483019190915260448201526064016102f9565b60028054600160a01b60ff60a01b199091161790556040516305d3b1d360e41b81527f000000000000000000000000000000000000000000000000000000000000000060048201527f000000000000000000000000000000000000000000000000000000000000000067ffffffffffffffff166024820152600360448201527f000000000000000000000000000000000000000000000000000000000000000063ffffffff166064820152600160848201526000906001600160a01b037f00000000000000000000000000000000000000000000000000000000000000001690635d3b1d309060a401602060405180830381600087803b15801561048357600080fd5b505af1158015610497573d6000803e3d6000fd5b505050506040513d601f19601f820116820180604052508101906104bb91906109bb565b60405190915081907f87e9e980e89d02ed1bfb229e02562db262b78c5fdfe0404b1b3d333a3fb4c6bd90600090a250505050565b600080828154811061050357610503610ba2565b6000918252602090912001546001600160a01b031692915050565b600060606000600260149054906101000a900460ff16600181111561054557610545610b8c565b600014905060007f00000000000000000000000000000000000000000000000000000000000000006001544261057b9190610b45565b6000549110915015154715158380156105915750825b801561059a5750815b80156105a35750805b604080518615158152851515602082015284151581830152831515606082015290519197507ff038df2b34bb2873c72580d9121c282ca8922e7ff27438145be692480cacc9e3919081900360800190a150505050915091565b7f000000000000000000000000000000000000000000000000000000000000000034101561063d5760405163b35614e760e01b815260040160405180910390fd5b6000600254600160a01b900460ff16600181111561065d5761065d610b8c565b1461067b57604051637aaa1dfb60e01b815260040160405180910390fd5b600080546001810182558180527f290decd9548b62a8d60345a988386fc84ba6bc95484008f6362f93160ef3e5630180546001600160a01b0319163390811790915560405190917f1d64fb5ba9f2548c5b98468d58f25b87b9e866afee0122e92d9fe722bf85076c91a2565b600080548251839083906106fd576106fd610ba2565b602002602001015161070f9190610b6a565b9050600080828154811061072557610725610ba2565b600091825260208083209190910154604080518481529283019081905291516001600160a01b03909116935061075c929190610821565b5042600155600280546001600160a81b0319166001600160a01b0383169081179091556040516000919047908381818185875af1925050503d80600081146107c0576040519150601f19603f3d011682016040523d82523d6000602084013e6107c5565b606091505b50509050806107e65760405162e4a00960e51b815260040160405180910390fd5b6040516001600160a01b038316907fb896f9276cf1b0dbe15c17dd5b14b9dc204c39d78658ea01c3db123fce01118390600090a25050505050565b828054828255906000526020600020908101928215610876579160200282015b8281111561087657825182546001600160a01b0319166001600160a01b03909116178255602090920191600190910190610841565b50610882929150610886565b5090565b5b808211156108825760008155600101610887565b600080602083850312156108ae57600080fd5b823567ffffffffffffffff808211156108c657600080fd5b818501915085601f8301126108da57600080fd5b8135818111156108e957600080fd5b8660208285010111156108fb57600080fd5b60209290920196919550909350505050565b6000602080838503121561092057600080fd5b823567ffffffffffffffff8082111561093857600080fd5b818501915085601f83011261094c57600080fd5b81358181111561095e5761095e610bb8565b610970601f8201601f19168501610b14565b9150808252868482850101111561098657600080fd5b8084840185840137600090820190930192909252509392505050565b6000602082840312156109b457600080fd5b5035919050565b6000602082840312156109cd57600080fd5b5051919050565b600080604083850312156109e757600080fd5b8235915060208084013567ffffffffffffffff80821115610a0757600080fd5b818601915086601f830112610a1b57600080fd5b813581811115610a2d57610a2d610bb8565b8060051b9150610a3e848301610b14565b8181528481019084860184860187018b1015610a5957600080fd5b600095505b83861015610a7c578035835260019590950194918601918601610a5e565b508096505050505050509250929050565b821515815260006020604081840152835180604085015260005b81811015610ac357858101830151858201606001528201610aa7565b81811115610ad5576000606083870101525b50601f01601f191692909201606001949350505050565b6020810160028310610b0e57634e487b7160e01b600052602160045260246000fd5b91905290565b604051601f8201601f1916810167ffffffffffffffff81118282101715610b3d57610b3d610bb8565b604052919050565b600082821015610b6557634e487b7160e01b600052601160045260246000fd5b500390565b600082610b8757634e487b7160e01b600052601260045260246000fd5b500690565b634e487b7160e01b600052602160045260246000fd5b634e487b7160e01b600052603260045260246000fd5b634e487b7160e01b600052604160045260246000fdfea2646970667358221220e8c721c25403cc3182bb633ea68513cfdaf4eaafbed8d90d2ad7aa319625eb7c64736f6c63430008070033",
  "linkReferences": {},
  "deployedLinkReferences": {}
}