{
  "_format": "hh-sol-artifact-1",
  "contractName": "Lottery",
  "sourceName": "contracts/Lottery.sol",
  "abi": [
    {
      "inputs": [
        {
          "internalType": "address",
          "name": "vrfCoordinatorV2",
          "type": "address"
        },
        {
          "internalType": "uint256",
          "name": "entranceFee",
          "type": "uint256"
        },
        {
          "internalType": "bytes32",
          "name": "gasLane",
          "type": "bytes32"
        },
        {
          "internalType": "uint64",
          "name": "subscriptionId",
          "type": "uint64"
        },
        {
          "internalType": "uint16",
          "name": "callbackGasLimit",
          "type": "uint16"
        },
        {
          "internalType": "uint256",
          "name": "interval",
          "type": "uint256"
        }
      ],
      "stateMutability": "nonpayable",
      "type": "constructor"
    },
    {
      "inputs": [],
      "name": "Lottery__NotEnoughETHToBuyATicket",
      "type": "error"
    },
    {
      "inputs": [
        {
          "internalType": "uint256",
          "name": "balance",
          "type": "uint256"
        },
        {
          "internalType": "uint256",
          "name": "numPlayers",
          "type": "uint256"
        },
        {
          "internalType": "uint256",
          "name": "state",
          "type": "uint256"
        }
      ],
      "name": "Lottery__PerformUpkeepNotNeeded",
      "type": "error"
    },
    {
      "inputs": [],
      "name": "Lottery__StateIsNotOpen",
      "type": "error"
    },
    {
      "inputs": [],
      "name": "Lottery__TransferFailed",
      "type": "error"
    },
    {
      "inputs": [
        {
          "internalType": "address",
          "name": "have",
          "type": "address"
        },
        {
          "internalType": "address",
          "name": "want",
          "type": "address"
        }
      ],
      "name": "OnlyCoordinatorCanFulfill",
      "type": "error"
    },
    {
      "anonymous": false,
      "inputs": [
        {
          "indexed": true,
          "internalType": "address",
          "name": "player",
          "type": "address"
        }
      ],
      "name": "LotteryEnter",
      "type": "event"
    },
    {
      "anonymous": false,
      "inputs": [
        {
          "indexed": true,
          "internalType": "uint256",
          "name": "requestId",
          "type": "uint256"
        }
      ],
      "name": "LotteryRequestedWinner",
      "type": "event"
    },
    {
      "inputs": [
        {
          "internalType": "bytes",
          "name": "",
          "type": "bytes"
        }
      ],
      "name": "checkUpkeep",
      "outputs": [
        {
          "internalType": "bool",
          "name": "upkeepNeeded",
          "type": "bool"
        },
        {
          "internalType": "bytes",
          "name": "",
          "type": "bytes"
        }
      ],
      "stateMutability": "nonpayable",
      "type": "function"
    },
    {
      "inputs": [],
      "name": "enterLottery",
      "outputs": [],
      "stateMutability": "payable",
      "type": "function"
    },
    {
      "inputs": [],
      "name": "getEntranceFee",
      "outputs": [
        {
          "internalType": "uint256",
          "name": "",
          "type": "uint256"
        }
      ],
      "stateMutability": "view",
      "type": "function"
    },
    {
      "inputs": [
        {
          "internalType": "uint256",
          "name": "index",
          "type": "uint256"
        }
      ],
      "name": "getPlayers",
      "outputs": [
        {
          "internalType": "address",
          "name": "",
          "type": "address"
        }
      ],
      "stateMutability": "view",
      "type": "function"
    },
    {
      "inputs": [],
      "name": "getRecentWinner",
      "outputs": [
        {
          "internalType": "address",
          "name": "",
          "type": "address"
        }
      ],
      "stateMutability": "view",
      "type": "function"
    },
    {
      "inputs": [
        {
          "internalType": "bytes",
          "name": "",
          "type": "bytes"
        }
      ],
      "name": "performUpkeep",
      "outputs": [],
      "stateMutability": "nonpayable",
      "type": "function"
    },
    {
      "inputs": [
        {
          "internalType": "uint256",
          "name": "requestId",
          "type": "uint256"
        },
        {
          "internalType": "uint256[]",
          "name": "randomWords",
          "type": "uint256[]"
        }
      ],
      "name": "rawFulfillRandomWords",
      "outputs": [],
      "stateMutability": "nonpayable",
      "type": "function"
    }
  ],
  "bytecode": "0x6101606040523480156200001257600080fd5b50604051620015b4380380620015b48339818101604052810190620000389190620001c6565b858073ffffffffffffffffffffffffffffffffffffffff1660808173ffffffffffffffffffffffffffffffffffffffff1660601b81525050508460a081815250508573ffffffffffffffffffffffffffffffffffffffff1660c08173ffffffffffffffffffffffffffffffffffffffff1660601b815250508360e081815250508267ffffffffffffffff166101008167ffffffffffffffff1660c01b815250508161ffff1663ffffffff166101208163ffffffff1660e01b81525050600060018111156200010b576200010a620002cc565b5b600260146101000a81548160ff02191690836001811115620001325762000131620002cc565b5b02179055504260018190555080610140818152505050505050505062000382565b600081519050620001648162000300565b92915050565b6000815190506200017b816200031a565b92915050565b600081519050620001928162000334565b92915050565b600081519050620001a9816200034e565b92915050565b600081519050620001c08162000368565b92915050565b60008060008060008060c08789031215620001e657620001e5620002fb565b5b6000620001f689828a0162000153565b96505060206200020989828a0162000198565b95505060406200021c89828a016200016a565b94505060606200022f89828a01620001af565b93505060806200024289828a0162000181565b92505060a06200025589828a0162000198565b9150509295509295509295565b60006200026f826200028e565b9050919050565b6000819050919050565b600061ffff82169050919050565b600073ffffffffffffffffffffffffffffffffffffffff82169050919050565b6000819050919050565b600067ffffffffffffffff82169050919050565b7f4e487b7100000000000000000000000000000000000000000000000000000000600052602160045260246000fd5b600080fd5b6200030b8162000262565b81146200031757600080fd5b50565b620003258162000276565b81146200033157600080fd5b50565b6200033f8162000280565b81146200034b57600080fd5b50565b6200035981620002ae565b81146200036557600080fd5b50565b6200037381620002b8565b81146200037f57600080fd5b50565b60805160601c60a05160c05160601c60e0516101005160c01c6101205160e01c610140516111bd620003f7600039600061053e015260006103c20152600061039f0152600061037e015260006103420152600081816101a601526105aa0152600081816101cc015261022001526111bd6000f3fe6080604052600436106100705760003560e01c8063460e20491161004e578063460e2049146100f2578063473f1ddc1461012f5780636e04ff0d1461015a578063c1af57851461019857610070565b806309bc33a7146100755780631fe543e3146100a05780634585e33b146100c9575b600080fd5b34801561008157600080fd5b5061008a6101a2565b6040516100979190610dfc565b60405180910390f35b3480156100ac57600080fd5b506100c760048036038101906100c29190610bff565b6101ca565b005b3480156100d557600080fd5b506100f060048036038101906100eb9190610b0f565b61028a565b005b3480156100fe57600080fd5b5061011960048036038101906101149190610ba5565b61048a565b6040516101269190610d35565b60405180910390f35b34801561013b57600080fd5b506101446104d1565b6040516101519190610d35565b60405180910390f35b34801561016657600080fd5b50610181600480360381019061017c9190610b5c565b6104fb565b60405161018f929190610d79565b60405180910390f35b6101a06105a8565b005b60007f0000000000000000000000000000000000000000000000000000000000000000905090565b7f000000000000000000000000000000000000000000000000000000000000000073ffffffffffffffffffffffffffffffffffffffff163373ffffffffffffffffffffffffffffffffffffffff161461027c57337f00000000000000000000000000000000000000000000000000000000000000006040517f1cf993f4000000000000000000000000000000000000000000000000000000008152600401610273929190610d50565b60405180910390fd5b6102868282610717565b5050565b60006102a4604051806020016040528060008152506104fb565b509050806103135747600080549050600260149054906101000a900460ff1660018111156102d5576102d46110b1565b5b6040517f259c11d600000000000000000000000000000000000000000000000000000000815260040161030a93929190610e17565b60405180910390fd5b6001600260146101000a81548160ff02191690836001811115610339576103386110b1565b5b021790555060007f000000000000000000000000000000000000000000000000000000000000000073ffffffffffffffffffffffffffffffffffffffff16635d3b1d307f00000000000000000000000000000000000000000000000000000000000000007f000000000000000000000000000000000000000000000000000000000000000060037f000000000000000000000000000000000000000000000000000000000000000060016040518663ffffffff1660e01b8152600401610403959493929190610da9565b602060405180830381600087803b15801561041d57600080fd5b505af1158015610431573d6000803e3d6000fd5b505050506040513d601f19601f820116820180604052508101906104559190610bd2565b9050807f87e9e980e89d02ed1bfb229e02562db262b78c5fdfe0404b1b3d333a3fb4c6bd60405160405180910390a250505050565b600080828154811061049f5761049e6110e0565b5b9060005260206000200160009054906101000a900473ffffffffffffffffffffffffffffffffffffffff169050919050565b6000600260009054906101000a900473ffffffffffffffffffffffffffffffffffffffff16905090565b600060606000600260149054906101000a900460ff166001811115610523576105226110b1565b5b60006001811115610537576105366110b1565b5b14905060007f00000000000000000000000000000000000000000000000000000000000000006001544261056b9190610ef7565b1190506000806000805490501190506000804711905083801561058b5750825b80156105945750815b801561059d5750805b955050505050915091565b7f0000000000000000000000000000000000000000000000000000000000000000341015610602576040517fb35614e700000000000000000000000000000000000000000000000000000000815260040160405180910390fd5b60006001811115610616576106156110b1565b5b600260149054906101000a900460ff166001811115610638576106376110b1565b5b1461066f576040517f7aaa1dfb00000000000000000000000000000000000000000000000000000000815260040160405180910390fd5b6000339080600181540180825580915050600190039060005260206000200160009091909190916101000a81548173ffffffffffffffffffffffffffffffffffffffff021916908373ffffffffffffffffffffffffffffffffffffffff1602179055503373ffffffffffffffffffffffffffffffffffffffff167f1d64fb5ba9f2548c5b98468d58f25b87b9e866afee0122e92d9fe722bf85076c60405160405180910390a2565b6000808054905082600081518110610732576107316110e0565b5b60200260200101516107449190611022565b9050600080828154811061075b5761075a6110e0565b5b9060005260206000200160009054906101000a900473ffffffffffffffffffffffffffffffffffffffff16905080600260006101000a81548173ffffffffffffffffffffffffffffffffffffffff021916908373ffffffffffffffffffffffffffffffffffffffff16021790555060008173ffffffffffffffffffffffffffffffffffffffff16476040516107ef90610d20565b60006040518083038185875af1925050503d806000811461082c576040519150601f19603f3d011682016040523d82523d6000602084013e610831565b606091505b505090508061086c576040517f1c94012000000000000000000000000000000000000000000000000000000000815260040160405180910390fd5b600067ffffffffffffffff8111156108875761088661110f565b5b6040519080825280602002602001820160405280156108b55781602001602082028036833780820191505090505b50600090805190602001906108cb9291906108da565b50426001819055505050505050565b828054828255906000526020600020908101928215610953579160200282015b828111156109525782518260006101000a81548173ffffffffffffffffffffffffffffffffffffffff021916908373ffffffffffffffffffffffffffffffffffffffff160217905550916020019190600101906108fa565b5b5090506109609190610964565b5090565b5b8082111561097d576000816000905550600101610965565b5090565b600061099461098f84610e73565b610e4e565b905080838252602082019050828560208602820111156109b7576109b6611148565b5b60005b858110156109e757816109cd8882610ae5565b8452602084019350602083019250506001810190506109ba565b5050509392505050565b6000610a046109ff84610e9f565b610e4e565b905082815260208101848484011115610a2057610a1f61114d565b5b610a2b848285610faf565b509392505050565b600082601f830112610a4857610a47611143565b5b8135610a58848260208601610981565b91505092915050565b60008083601f840112610a7757610a76611143565b5b8235905067ffffffffffffffff811115610a9457610a9361113e565b5b602083019150836001820283011115610ab057610aaf611148565b5b9250929050565b600082601f830112610acc57610acb611143565b5b8135610adc8482602086016109f1565b91505092915050565b600081359050610af481611170565b92915050565b600081519050610b0981611170565b92915050565b60008060208385031215610b2657610b25611157565b5b600083013567ffffffffffffffff811115610b4457610b43611152565b5b610b5085828601610a61565b92509250509250929050565b600060208284031215610b7257610b71611157565b5b600082013567ffffffffffffffff811115610b9057610b8f611152565b5b610b9c84828501610ab7565b91505092915050565b600060208284031215610bbb57610bba611157565b5b6000610bc984828501610ae5565b91505092915050565b600060208284031215610be857610be7611157565b5b6000610bf684828501610afa565b91505092915050565b60008060408385031215610c1657610c15611157565b5b6000610c2485828601610ae5565b925050602083013567ffffffffffffffff811115610c4557610c44611152565b5b610c5185828601610a33565b9150509250929050565b610c6481610f2b565b82525050565b610c7381610f3d565b82525050565b610c8281610f49565b82525050565b6000610c9382610ed0565b610c9d8185610edb565b9350610cad818560208601610fbe565b610cb68161115c565b840191505092915050565b6000610cce600083610eec565b9150610cd98261116d565b600082019050919050565b610ced81610f53565b82525050565b610cfc81610f81565b82525050565b610d0b81610f8b565b82525050565b610d1a81610f9b565b82525050565b6000610d2b82610cc1565b9150819050919050565b6000602082019050610d4a6000830184610c5b565b92915050565b6000604082019050610d656000830185610c5b565b610d726020830184610c5b565b9392505050565b6000604082019050610d8e6000830185610c6a565b8181036020830152610da08184610c88565b90509392505050565b600060a082019050610dbe6000830188610c79565b610dcb6020830187610d11565b610dd86040830186610ce4565b610de56060830185610d02565b610df26080830184610d02565b9695505050505050565b6000602082019050610e116000830184610cf3565b92915050565b6000606082019050610e2c6000830186610cf3565b610e396020830185610cf3565b610e466040830184610cf3565b949350505050565b6000610e58610e69565b9050610e648282610ff1565b919050565b6000604051905090565b600067ffffffffffffffff821115610e8e57610e8d61110f565b5b602082029050602081019050919050565b600067ffffffffffffffff821115610eba57610eb961110f565b5b610ec38261115c565b9050602081019050919050565b600081519050919050565b600082825260208201905092915050565b600081905092915050565b6000610f0282610f81565b9150610f0d83610f81565b925082821015610f2057610f1f611053565b5b828203905092915050565b6000610f3682610f61565b9050919050565b60008115159050919050565b6000819050919050565b600061ffff82169050919050565b600073ffffffffffffffffffffffffffffffffffffffff82169050919050565b6000819050919050565b600063ffffffff82169050919050565b600067ffffffffffffffff82169050919050565b82818337600083830152505050565b60005b83811015610fdc578082015181840152602081019050610fc1565b83811115610feb576000848401525b50505050565b610ffa8261115c565b810181811067ffffffffffffffff821117156110195761101861110f565b5b80604052505050565b600061102d82610f81565b915061103883610f81565b92508261104857611047611082565b5b828206905092915050565b7f4e487b7100000000000000000000000000000000000000000000000000000000600052601160045260246000fd5b7f4e487b7100000000000000000000000000000000000000000000000000000000600052601260045260246000fd5b7f4e487b7100000000000000000000000000000000000000000000000000000000600052602160045260246000fd5b7f4e487b7100000000000000000000000000000000000000000000000000000000600052603260045260246000fd5b7f4e487b7100000000000000000000000000000000000000000000000000000000600052604160045260246000fd5b600080fd5b600080fd5b600080fd5b600080fd5b600080fd5b600080fd5b6000601f19601f8301169050919050565b50565b61117981610f81565b811461118457600080fd5b5056fea2646970667358221220e9328fa27df096f02cfa6683cf4cce34980d9387f4c93cf1efeb0653fcf2213f64736f6c63430008070033",
  "linkReferences": {},
  "deployedLinkReferences": {}
}