{
  "_format": "hh-sol-artifact-1",
  "contractName": "Lottery",
  "sourceName": "contracts/Lottery.sol",
  "abi": [
    {
      "inputs": [
        {
          "internalType": "address",
          "name": "vrfCoordinatorV2",
          "type": "address"
        },
        {
          "internalType": "uint256",
          "name": "entranceFee",
          "type": "uint256"
        },
        {
          "internalType": "bytes32",
          "name": "gasLane",
          "type": "bytes32"
        },
        {
          "internalType": "uint64",
          "name": "subscriptionId",
          "type": "uint64"
        },
        {
          "internalType": "uint32",
          "name": "callbackGasLimit",
          "type": "uint32"
        },
        {
          "internalType": "uint256",
          "name": "interval",
          "type": "uint256"
        }
      ],
      "stateMutability": "nonpayable",
      "type": "constructor"
    },
    {
      "inputs": [],
      "name": "Lottery__NotEnoughETHToBuyATicket",
      "type": "error"
    },
    {
      "inputs": [
        {
          "internalType": "uint256",
          "name": "balance",
          "type": "uint256"
        },
        {
          "internalType": "uint256",
          "name": "numPlayers",
          "type": "uint256"
        },
        {
          "internalType": "uint256",
          "name": "state",
          "type": "uint256"
        }
      ],
      "name": "Lottery__PerformUpkeepNotNeeded",
      "type": "error"
    },
    {
      "inputs": [],
      "name": "Lottery__StateIsNotOpen",
      "type": "error"
    },
    {
      "inputs": [],
      "name": "Lottery__TransferFailed",
      "type": "error"
    },
    {
      "inputs": [
        {
          "internalType": "address",
          "name": "have",
          "type": "address"
        },
        {
          "internalType": "address",
          "name": "want",
          "type": "address"
        }
      ],
      "name": "OnlyCoordinatorCanFulfill",
      "type": "error"
    },
    {
      "anonymous": false,
      "inputs": [
        {
          "indexed": true,
          "internalType": "address",
          "name": "player",
          "type": "address"
        }
      ],
      "name": "LotteryEnter",
      "type": "event"
    },
    {
      "anonymous": false,
      "inputs": [
        {
          "indexed": true,
          "internalType": "uint256",
          "name": "requestId",
          "type": "uint256"
        }
      ],
      "name": "LotteryRequestedWinner",
      "type": "event"
    },
    {
      "anonymous": false,
      "inputs": [
        {
          "indexed": true,
          "internalType": "address",
          "name": "winner",
          "type": "address"
        }
      ],
      "name": "LotteryWinnerPicked",
      "type": "event"
    },
    {
      "inputs": [
        {
          "internalType": "bytes",
          "name": "",
          "type": "bytes"
        }
      ],
      "name": "checkUpkeep",
      "outputs": [
        {
          "internalType": "bool",
          "name": "upkeepNeeded",
          "type": "bool"
        },
        {
          "internalType": "bytes",
          "name": "",
          "type": "bytes"
        }
      ],
      "stateMutability": "nonpayable",
      "type": "function"
    },
    {
      "inputs": [],
      "name": "enterLottery",
      "outputs": [],
      "stateMutability": "payable",
      "type": "function"
    },
    {
      "inputs": [],
      "name": "getEntranceFee",
      "outputs": [
        {
          "internalType": "uint256",
          "name": "",
          "type": "uint256"
        }
      ],
      "stateMutability": "view",
      "type": "function"
    },
    {
      "inputs": [],
      "name": "getInterval",
      "outputs": [
        {
          "internalType": "uint256",
          "name": "",
          "type": "uint256"
        }
      ],
      "stateMutability": "view",
      "type": "function"
    },
    {
      "inputs": [],
      "name": "getLatestTimestamp",
      "outputs": [
        {
          "internalType": "uint256",
          "name": "",
          "type": "uint256"
        }
      ],
      "stateMutability": "view",
      "type": "function"
    },
    {
      "inputs": [],
      "name": "getLotteryState",
      "outputs": [
        {
          "internalType": "enum Lottery.LotteryState",
          "name": "",
          "type": "uint8"
        }
      ],
      "stateMutability": "view",
      "type": "function"
    },
    {
      "inputs": [],
      "name": "getNumWords",
      "outputs": [
        {
          "internalType": "uint256",
          "name": "",
          "type": "uint256"
        }
      ],
      "stateMutability": "pure",
      "type": "function"
    },
    {
      "inputs": [],
      "name": "getNumberOfPlayers",
      "outputs": [
        {
          "internalType": "uint256",
          "name": "",
          "type": "uint256"
        }
      ],
      "stateMutability": "view",
      "type": "function"
    },
    {
      "inputs": [
        {
          "internalType": "uint256",
          "name": "index",
          "type": "uint256"
        }
      ],
      "name": "getPlayers",
      "outputs": [
        {
          "internalType": "address",
          "name": "",
          "type": "address"
        }
      ],
      "stateMutability": "view",
      "type": "function"
    },
    {
      "inputs": [],
      "name": "getRecentWinner",
      "outputs": [
        {
          "internalType": "address",
          "name": "",
          "type": "address"
        }
      ],
      "stateMutability": "view",
      "type": "function"
    },
    {
      "inputs": [],
      "name": "getRequestConfirmations",
      "outputs": [
        {
          "internalType": "uint256",
          "name": "",
          "type": "uint256"
        }
      ],
      "stateMutability": "pure",
      "type": "function"
    },
    {
      "inputs": [
        {
          "internalType": "bytes",
          "name": "",
          "type": "bytes"
        }
      ],
      "name": "performUpkeep",
      "outputs": [],
      "stateMutability": "nonpayable",
      "type": "function"
    },
    {
      "inputs": [
        {
          "internalType": "uint256",
          "name": "requestId",
          "type": "uint256"
        },
        {
          "internalType": "uint256[]",
          "name": "randomWords",
          "type": "uint256[]"
        }
      ],
      "name": "rawFulfillRandomWords",
      "outputs": [],
      "stateMutability": "nonpayable",
      "type": "function"
    }
  ],
  "bytecode": "0x6101606040523480156200001257600080fd5b5060405162001824380380620018248339818101604052810190620000389190620001c2565b858073ffffffffffffffffffffffffffffffffffffffff1660808173ffffffffffffffffffffffffffffffffffffffff1660601b81525050508460a081815250508573ffffffffffffffffffffffffffffffffffffffff1660c08173ffffffffffffffffffffffffffffffffffffffff1660601b815250508360e081815250508267ffffffffffffffff166101008167ffffffffffffffff1660c01b815250508163ffffffff166101208163ffffffff1660e01b8152505060006001811115620001075762000106620002ca565b5b600260146101000a81548160ff021916908360018111156200012e576200012d620002ca565b5b02179055504260018190555080610140818152505050505050505062000380565b6000815190506200016081620002fe565b92915050565b600081519050620001778162000318565b92915050565b6000815190506200018e8162000332565b92915050565b600081519050620001a5816200034c565b92915050565b600081519050620001bc8162000366565b92915050565b60008060008060008060c08789031215620001e257620001e1620002f9565b5b6000620001f289828a016200014f565b96505060206200020589828a016200017d565b95505060406200021889828a0162000166565b94505060606200022b89828a01620001ab565b93505060806200023e89828a0162000194565b92505060a06200025189828a016200017d565b9150509295509295509295565b60006200026b826200027c565b9050919050565b6000819050919050565b600073ffffffffffffffffffffffffffffffffffffffff82169050919050565b6000819050919050565b600063ffffffff82169050919050565b600067ffffffffffffffff82169050919050565b7f4e487b7100000000000000000000000000000000000000000000000000000000600052602160045260246000fd5b600080fd5b62000309816200025e565b81146200031557600080fd5b50565b620003238162000272565b81146200032f57600080fd5b50565b6200033d816200029c565b81146200034957600080fd5b50565b6200035781620002a6565b81146200036357600080fd5b50565b6200037181620002b6565b81146200037d57600080fd5b50565b60805160601c60a05160c05160601c60e0516101005160c01c6101205160e01c61014051611428620003fc600039600081816106c5015261073301526000610516015260006104f3015260006104d2015260006104960152600081816102fa0152610759015260008181610320015261037401526114286000f3fe6080604052600436106100c25760003560e01c80635f1b0fd81161007f57806391ad27b41161005957806391ad27b41461026b578063c1af578514610296578063f43b52cb146102a0578063fd6673f5146102cb576100c2565b80635f1b0fd8146101d75780636b68c03c146102025780636e04ff0d1461022d576100c2565b806309bc33a7146100c75780631fe543e3146100f25780634585e33b1461011b578063460e204914610144578063473f1ddc1461018157806353a2c19a146101ac575b600080fd5b3480156100d357600080fd5b506100dc6102f6565b6040516100e9919061102e565b60405180910390f35b3480156100fe57600080fd5b5061011960048036038101906101149190610e07565b61031e565b005b34801561012757600080fd5b50610142600480360381019061013d9190610d17565b6103de565b005b34801561015057600080fd5b5061016b60048036038101906101669190610dad565b6105de565b6040516101789190610f4c565b60405180910390f35b34801561018d57600080fd5b50610196610625565b6040516101a39190610f4c565b60405180910390f35b3480156101b857600080fd5b506101c161064f565b6040516101ce919061102e565b60405180910390f35b3480156101e357600080fd5b506101ec61065e565b6040516101f9919061102e565b60405180910390f35b34801561020e57600080fd5b5061021761066b565b6040516102249190611013565b60405180910390f35b34801561023957600080fd5b50610254600480360381019061024f9190610d64565b610682565b604051610262929190610f90565b60405180910390f35b34801561027757600080fd5b5061028061072f565b60405161028d919061102e565b60405180910390f35b61029e610757565b005b3480156102ac57600080fd5b506102b56108c6565b6040516102c2919061102e565b60405180910390f35b3480156102d757600080fd5b506102e06108d0565b6040516102ed919061102e565b60405180910390f35b60007f0000000000000000000000000000000000000000000000000000000000000000905090565b7f000000000000000000000000000000000000000000000000000000000000000073ffffffffffffffffffffffffffffffffffffffff163373ffffffffffffffffffffffffffffffffffffffff16146103d057337f00000000000000000000000000000000000000000000000000000000000000006040517f1cf993f40000000000000000000000000000000000000000000000000000000081526004016103c7929190610f67565b60405180910390fd5b6103da82826108dc565b5050565b60006103f860405180602001604052806000815250610682565b509050806104675747600080549050600260149054906101000a900460ff16600181111561042957610428611308565b5b6040517f259c11d600000000000000000000000000000000000000000000000000000000815260040161045e93929190611049565b60405180910390fd5b6001600260146101000a81548160ff0219169083600181111561048d5761048c611308565b5b021790555060007f000000000000000000000000000000000000000000000000000000000000000073ffffffffffffffffffffffffffffffffffffffff16635d3b1d307f00000000000000000000000000000000000000000000000000000000000000007f000000000000000000000000000000000000000000000000000000000000000060037f000000000000000000000000000000000000000000000000000000000000000060016040518663ffffffff1660e01b8152600401610557959493929190610fc0565b602060405180830381600087803b15801561057157600080fd5b505af1158015610585573d6000803e3d6000fd5b505050506040513d601f19601f820116820180604052508101906105a99190610dda565b9050807f87e9e980e89d02ed1bfb229e02562db262b78c5fdfe0404b1b3d333a3fb4c6bd60405160405180910390a250505050565b60008082815481106105f3576105f2611337565b5b9060005260206000200160009054906101000a900473ffffffffffffffffffffffffffffffffffffffff169050919050565b6000600260009054906101000a900473ffffffffffffffffffffffffffffffffffffffff16905090565b6000600163ffffffff16905090565b6000600361ffff16905090565b6000600260149054906101000a900460ff16905090565b600060606000600260149054906101000a900460ff1660018111156106aa576106a9611308565b5b600060018111156106be576106bd611308565b5b14905060007f0000000000000000000000000000000000000000000000000000000000000000600154426106f29190611129565b119050600080600080549050119050600080471190508380156107125750825b801561071b5750815b80156107245750805b955050505050915091565b60007f0000000000000000000000000000000000000000000000000000000000000000905090565b7f00000000000000000000000000000000000000000000000000000000000000003410156107b1576040517fb35614e700000000000000000000000000000000000000000000000000000000815260040160405180910390fd5b600060018111156107c5576107c4611308565b5b600260149054906101000a900460ff1660018111156107e7576107e6611308565b5b1461081e576040517f7aaa1dfb00000000000000000000000000000000000000000000000000000000815260040160405180910390fd5b6000339080600181540180825580915050600190039060005260206000200160009091909190916101000a81548173ffffffffffffffffffffffffffffffffffffffff021916908373ffffffffffffffffffffffffffffffffffffffff1602179055503373ffffffffffffffffffffffffffffffffffffffff167f1d64fb5ba9f2548c5b98468d58f25b87b9e866afee0122e92d9fe722bf85076c60405160405180910390a2565b6000600154905090565b60008080549050905090565b60008080549050826000815181106108f7576108f6611337565b5b60200260200101516109099190611279565b905060008082815481106109205761091f611337565b5b9060005260206000200160009054906101000a900473ffffffffffffffffffffffffffffffffffffffff16905080600260006101000a81548173ffffffffffffffffffffffffffffffffffffffff021916908373ffffffffffffffffffffffffffffffffffffffff16021790555060008173ffffffffffffffffffffffffffffffffffffffff16476040516109b490610f37565b60006040518083038185875af1925050503d80600081146109f1576040519150601f19603f3d011682016040523d82523d6000602084013e6109f6565b606091505b5050905080610a31576040517f1c94012000000000000000000000000000000000000000000000000000000000815260040160405180910390fd5b600067ffffffffffffffff811115610a4c57610a4b611366565b5b604051908082528060200260200182016040528015610a7a5781602001602082028036833780820191505090505b5060009080519060200190610a90929190610ae2565b50426001819055508173ffffffffffffffffffffffffffffffffffffffff167fb896f9276cf1b0dbe15c17dd5b14b9dc204c39d78658ea01c3db123fce01118360405160405180910390a25050505050565b828054828255906000526020600020908101928215610b5b579160200282015b82811115610b5a5782518260006101000a81548173ffffffffffffffffffffffffffffffffffffffff021916908373ffffffffffffffffffffffffffffffffffffffff16021790555091602001919060010190610b02565b5b509050610b689190610b6c565b5090565b5b80821115610b85576000816000905550600101610b6d565b5090565b6000610b9c610b97846110a5565b611080565b90508083825260208201905082856020860282011115610bbf57610bbe61139f565b5b60005b85811015610bef5781610bd58882610ced565b845260208401935060208301925050600181019050610bc2565b5050509392505050565b6000610c0c610c07846110d1565b611080565b905082815260208101848484011115610c2857610c276113a4565b5b610c33848285611206565b509392505050565b600082601f830112610c5057610c4f61139a565b5b8135610c60848260208601610b89565b91505092915050565b60008083601f840112610c7f57610c7e61139a565b5b8235905067ffffffffffffffff811115610c9c57610c9b611395565b5b602083019150836001820283011115610cb857610cb761139f565b5b9250929050565b600082601f830112610cd457610cd361139a565b5b8135610ce4848260208601610bf9565b91505092915050565b600081359050610cfc816113db565b92915050565b600081519050610d11816113db565b92915050565b60008060208385031215610d2e57610d2d6113ae565b5b600083013567ffffffffffffffff811115610d4c57610d4b6113a9565b5b610d5885828601610c69565b92509250509250929050565b600060208284031215610d7a57610d796113ae565b5b600082013567ffffffffffffffff811115610d9857610d976113a9565b5b610da484828501610cbf565b91505092915050565b600060208284031215610dc357610dc26113ae565b5b6000610dd184828501610ced565b91505092915050565b600060208284031215610df057610def6113ae565b5b6000610dfe84828501610d02565b91505092915050565b60008060408385031215610e1e57610e1d6113ae565b5b6000610e2c85828601610ced565b925050602083013567ffffffffffffffff811115610e4d57610e4c6113a9565b5b610e5985828601610c3b565b9150509250929050565b610e6c8161115d565b82525050565b610e7b8161116f565b82525050565b610e8a8161117b565b82525050565b6000610e9b82611102565b610ea5818561110d565b9350610eb5818560208601611215565b610ebe816113b3565b840191505092915050565b610ed2816111f4565b82525050565b6000610ee560008361111e565b9150610ef0826113c4565b600082019050919050565b610f0481611198565b82525050565b610f13816111c6565b82525050565b610f22816111d0565b82525050565b610f31816111e0565b82525050565b6000610f4282610ed8565b9150819050919050565b6000602082019050610f616000830184610e63565b92915050565b6000604082019050610f7c6000830185610e63565b610f896020830184610e63565b9392505050565b6000604082019050610fa56000830185610e72565b8181036020830152610fb78184610e90565b90509392505050565b600060a082019050610fd56000830188610e81565b610fe26020830187610f28565b610fef6040830186610efb565b610ffc6060830185610f19565b6110096080830184610f19565b9695505050505050565b60006020820190506110286000830184610ec9565b92915050565b60006020820190506110436000830184610f0a565b92915050565b600060608201905061105e6000830186610f0a565b61106b6020830185610f0a565b6110786040830184610f0a565b949350505050565b600061108a61109b565b90506110968282611248565b919050565b6000604051905090565b600067ffffffffffffffff8211156110c0576110bf611366565b5b602082029050602081019050919050565b600067ffffffffffffffff8211156110ec576110eb611366565b5b6110f5826113b3565b9050602081019050919050565b600081519050919050565b600082825260208201905092915050565b600081905092915050565b6000611134826111c6565b915061113f836111c6565b925082821015611152576111516112aa565b5b828203905092915050565b6000611168826111a6565b9050919050565b60008115159050919050565b6000819050919050565b6000819050611193826113c7565b919050565b600061ffff82169050919050565b600073ffffffffffffffffffffffffffffffffffffffff82169050919050565b6000819050919050565b600063ffffffff82169050919050565b600067ffffffffffffffff82169050919050565b60006111ff82611185565b9050919050565b82818337600083830152505050565b60005b83811015611233578082015181840152602081019050611218565b83811115611242576000848401525b50505050565b611251826113b3565b810181811067ffffffffffffffff821117156112705761126f611366565b5b80604052505050565b6000611284826111c6565b915061128f836111c6565b92508261129f5761129e6112d9565b5b828206905092915050565b7f4e487b7100000000000000000000000000000000000000000000000000000000600052601160045260246000fd5b7f4e487b7100000000000000000000000000000000000000000000000000000000600052601260045260246000fd5b7f4e487b7100000000000000000000000000000000000000000000000000000000600052602160045260246000fd5b7f4e487b7100000000000000000000000000000000000000000000000000000000600052603260045260246000fd5b7f4e487b7100000000000000000000000000000000000000000000000000000000600052604160045260246000fd5b600080fd5b600080fd5b600080fd5b600080fd5b600080fd5b600080fd5b6000601f19601f8301169050919050565b50565b600281106113d8576113d7611308565b5b50565b6113e4816111c6565b81146113ef57600080fd5b5056fea264697066735822122064c5a3d0b6d82ba8d7c4f67682d30919f6ae75609f45aff1895926360b71b25464736f6c63430008070033",
  "linkReferences": {},
  "deployedLinkReferences": {}
}